{
  "_format": "hh-sol-artifact-1",
  "contractName": "ContractNFTPlatform",
  "sourceName": "contracts/ContractNFTPlatform.sol",
  "abi": [
    {
      "inputs": [],
      "stateMutability": "nonpayable",
      "type": "constructor"
    },
    {
      "inputs": [
        {
          "internalType": "address",
          "name": "sender",
          "type": "address"
        },
        {
          "internalType": "uint256",
          "name": "tokenId",
          "type": "uint256"
        },
        {
          "internalType": "address",
          "name": "owner",
          "type": "address"
        }
      ],
      "name": "ERC721IncorrectOwner",
      "type": "error"
    },
    {
      "inputs": [
        {
          "internalType": "address",
          "name": "operator",
          "type": "address"
        },
        {
          "internalType": "uint256",
          "name": "tokenId",
          "type": "uint256"
        }
      ],
      "name": "ERC721InsufficientApproval",
      "type": "error"
    },
    {
      "inputs": [
        {
          "internalType": "address",
          "name": "approver",
          "type": "address"
        }
      ],
      "name": "ERC721InvalidApprover",
      "type": "error"
    },
    {
      "inputs": [
        {
          "internalType": "address",
          "name": "operator",
          "type": "address"
        }
      ],
      "name": "ERC721InvalidOperator",
      "type": "error"
    },
    {
      "inputs": [
        {
          "internalType": "address",
          "name": "owner",
          "type": "address"
        }
      ],
      "name": "ERC721InvalidOwner",
      "type": "error"
    },
    {
      "inputs": [
        {
          "internalType": "address",
          "name": "receiver",
          "type": "address"
        }
      ],
      "name": "ERC721InvalidReceiver",
      "type": "error"
    },
    {
      "inputs": [
        {
          "internalType": "address",
          "name": "sender",
          "type": "address"
        }
      ],
      "name": "ERC721InvalidSender",
      "type": "error"
    },
    {
      "inputs": [
        {
          "internalType": "uint256",
          "name": "tokenId",
          "type": "uint256"
        }
      ],
      "name": "ERC721NonexistentToken",
      "type": "error"
    },
    {
      "inputs": [
        {
          "internalType": "address",
          "name": "owner",
          "type": "address"
        }
      ],
      "name": "OwnableInvalidOwner",
      "type": "error"
    },
    {
      "inputs": [
        {
          "internalType": "address",
          "name": "account",
          "type": "address"
        }
      ],
      "name": "OwnableUnauthorizedAccount",
      "type": "error"
    },
    {
      "anonymous": false,
      "inputs": [
        {
          "indexed": true,
          "internalType": "address",
          "name": "owner",
          "type": "address"
        },
        {
          "indexed": true,
          "internalType": "address",
          "name": "approved",
          "type": "address"
        },
        {
          "indexed": true,
          "internalType": "uint256",
          "name": "tokenId",
          "type": "uint256"
        }
      ],
      "name": "Approval",
      "type": "event"
    },
    {
      "anonymous": false,
      "inputs": [
        {
          "indexed": true,
          "internalType": "address",
          "name": "owner",
          "type": "address"
        },
        {
          "indexed": true,
          "internalType": "address",
          "name": "operator",
          "type": "address"
        },
        {
          "indexed": false,
          "internalType": "bool",
          "name": "approved",
          "type": "bool"
        }
      ],
      "name": "ApprovalForAll",
      "type": "event"
    },
    {
      "anonymous": false,
      "inputs": [
        {
          "indexed": false,
          "internalType": "uint256",
          "name": "_fromTokenId",
          "type": "uint256"
        },
        {
          "indexed": false,
          "internalType": "uint256",
          "name": "_toTokenId",
          "type": "uint256"
        }
      ],
      "name": "BatchMetadataUpdate",
      "type": "event"
    },
    {
      "anonymous": false,
      "inputs": [
        {
          "indexed": true,
          "internalType": "uint256",
          "name": "tokenId",
          "type": "uint256"
        },
        {
          "indexed": true,
          "internalType": "address",
          "name": "owner",
          "type": "address"
        },
        {
          "indexed": false,
          "internalType": "string",
          "name": "ipfsUrl",
          "type": "string"
        }
      ],
      "name": "ContractMinted",
      "type": "event"
    },
    {
      "anonymous": false,
      "inputs": [
        {
          "indexed": true,
          "internalType": "uint256",
          "name": "tokenId",
          "type": "uint256"
        },
        {
          "indexed": true,
          "internalType": "address",
          "name": "donor",
          "type": "address"
        },
        {
          "indexed": false,
          "internalType": "uint256",
          "name": "amount",
          "type": "uint256"
        }
      ],
      "name": "DonationReceived",
      "type": "event"
    },
    {
      "anonymous": false,
      "inputs": [
        {
          "indexed": false,
          "internalType": "uint256",
          "name": "_tokenId",
          "type": "uint256"
        }
      ],
      "name": "MetadataUpdate",
      "type": "event"
    },
    {
      "anonymous": false,
      "inputs": [
        {
          "indexed": true,
          "internalType": "address",
          "name": "previousOwner",
          "type": "address"
        },
        {
          "indexed": true,
          "internalType": "address",
          "name": "newOwner",
          "type": "address"
        }
      ],
      "name": "OwnershipTransferred",
      "type": "event"
    },
    {
      "anonymous": false,
      "inputs": [
        {
          "indexed": true,
          "internalType": "address",
          "name": "from",
          "type": "address"
        },
        {
          "indexed": true,
          "internalType": "address",
          "name": "to",
          "type": "address"
        },
        {
          "indexed": true,
          "internalType": "uint256",
          "name": "tokenId",
          "type": "uint256"
        }
      ],
      "name": "Transfer",
      "type": "event"
    },
    {
      "inputs": [
        {
          "internalType": "address",
          "name": "to",
          "type": "address"
        },
        {
          "internalType": "uint256",
          "name": "tokenId",
          "type": "uint256"
        }
      ],
      "name": "approve",
      "outputs": [],
      "stateMutability": "nonpayable",
      "type": "function"
    },
    {
      "inputs": [
        {
          "internalType": "address",
          "name": "owner",
          "type": "address"
        }
      ],
      "name": "balanceOf",
      "outputs": [
        {
          "internalType": "uint256",
          "name": "",
          "type": "uint256"
        }
      ],
      "stateMutability": "view",
      "type": "function"
    },
    {
      "inputs": [
        {
          "internalType": "uint256",
          "name": "",
          "type": "uint256"
        }
      ],
      "name": "contractNFTs",
      "outputs": [
        {
          "internalType": "uint256",
          "name": "tokenId",
          "type": "uint256"
        },
        {
          "internalType": "string",
          "name": "name",
          "type": "string"
        },
        {
          "internalType": "string",
          "name": "description",
          "type": "string"
        },
        {
          "internalType": "string",
          "name": "ipfsUrl",
          "type": "string"
        },
        {
          "internalType": "uint256",
          "name": "totalDonations",
          "type": "uint256"
        },
        {
          "internalType": "address payable",
          "name": "owner",
          "type": "address"
        }
      ],
      "stateMutability": "view",
      "type": "function"
    },
    {
      "inputs": [
        {
          "internalType": "uint256",
          "name": "_tokenId",
          "type": "uint256"
        }
      ],
      "name": "donateAndDownload",
      "outputs": [],
      "stateMutability": "payable",
      "type": "function"
    },
    {
      "inputs": [
        {
          "internalType": "uint256",
          "name": "tokenId",
          "type": "uint256"
        }
      ],
      "name": "getApproved",
      "outputs": [
        {
          "internalType": "address",
          "name": "",
          "type": "address"
        }
      ],
      "stateMutability": "view",
      "type": "function"
    },
    {
      "inputs": [
        {
          "internalType": "uint256",
          "name": "_tokenId",
          "type": "uint256"
        }
      ],
      "name": "getContractNFT",
      "outputs": [
        {
          "internalType": "uint256",
          "name": "tokenId",
          "type": "uint256"
        },
        {
          "internalType": "string",
          "name": "name",
          "type": "string"
        },
        {
          "internalType": "string",
          "name": "description",
          "type": "string"
        },
        {
          "internalType": "string",
          "name": "ipfsUrl",
          "type": "string"
        },
        {
          "internalType": "uint256",
          "name": "totalDonations",
          "type": "uint256"
        },
        {
          "internalType": "address",
          "name": "owner",
          "type": "address"
        }
      ],
      "stateMutability": "view",
      "type": "function"
    },
    {
      "inputs": [
        {
          "internalType": "address",
          "name": "owner",
          "type": "address"
        },
        {
          "internalType": "address",
          "name": "operator",
          "type": "address"
        }
      ],
      "name": "isApprovedForAll",
      "outputs": [
        {
          "internalType": "bool",
          "name": "",
          "type": "bool"
        }
      ],
      "stateMutability": "view",
      "type": "function"
    },
    {
      "inputs": [
        {
          "internalType": "string",
          "name": "_name",
          "type": "string"
        },
        {
          "internalType": "string",
          "name": "_description",
          "type": "string"
        },
        {
          "internalType": "string",
          "name": "_ipfsUrl",
          "type": "string"
        }
      ],
      "name": "mintContractNFT",
      "outputs": [],
      "stateMutability": "nonpayable",
      "type": "function"
    },
    {
      "inputs": [],
      "name": "name",
      "outputs": [
        {
          "internalType": "string",
          "name": "",
          "type": "string"
        }
      ],
      "stateMutability": "view",
      "type": "function"
    },
    {
      "inputs": [],
      "name": "nextTokenId",
      "outputs": [
        {
          "internalType": "uint256",
          "name": "",
          "type": "uint256"
        }
      ],
      "stateMutability": "view",
      "type": "function"
    },
    {
      "inputs": [],
      "name": "owner",
      "outputs": [
        {
          "internalType": "address",
          "name": "",
          "type": "address"
        }
      ],
      "stateMutability": "view",
      "type": "function"
    },
    {
      "inputs": [
        {
          "internalType": "uint256",
          "name": "tokenId",
          "type": "uint256"
        }
      ],
      "name": "ownerOf",
      "outputs": [
        {
          "internalType": "address",
          "name": "",
          "type": "address"
        }
      ],
      "stateMutability": "view",
      "type": "function"
    },
    {
      "inputs": [],
      "name": "renounceOwnership",
      "outputs": [],
      "stateMutability": "nonpayable",
      "type": "function"
    },
    {
      "inputs": [
        {
          "internalType": "address",
          "name": "from",
          "type": "address"
        },
        {
          "internalType": "address",
          "name": "to",
          "type": "address"
        },
        {
          "internalType": "uint256",
          "name": "tokenId",
          "type": "uint256"
        }
      ],
      "name": "safeTransferFrom",
      "outputs": [],
      "stateMutability": "nonpayable",
      "type": "function"
    },
    {
      "inputs": [
        {
          "internalType": "address",
          "name": "from",
          "type": "address"
        },
        {
          "internalType": "address",
          "name": "to",
          "type": "address"
        },
        {
          "internalType": "uint256",
          "name": "tokenId",
          "type": "uint256"
        },
        {
          "internalType": "bytes",
          "name": "data",
          "type": "bytes"
        }
      ],
      "name": "safeTransferFrom",
      "outputs": [],
      "stateMutability": "nonpayable",
      "type": "function"
    },
    {
      "inputs": [
        {
          "internalType": "address",
          "name": "operator",
          "type": "address"
        },
        {
          "internalType": "bool",
          "name": "approved",
          "type": "bool"
        }
      ],
      "name": "setApprovalForAll",
      "outputs": [],
      "stateMutability": "nonpayable",
      "type": "function"
    },
    {
      "inputs": [
        {
          "internalType": "bytes4",
          "name": "interfaceId",
          "type": "bytes4"
        }
      ],
      "name": "supportsInterface",
      "outputs": [
        {
          "internalType": "bool",
          "name": "",
          "type": "bool"
        }
      ],
      "stateMutability": "view",
      "type": "function"
    },
    {
      "inputs": [],
      "name": "symbol",
      "outputs": [
        {
          "internalType": "string",
          "name": "",
          "type": "string"
        }
      ],
      "stateMutability": "view",
      "type": "function"
    },
    {
      "inputs": [
        {
          "internalType": "uint256",
          "name": "tokenId",
          "type": "uint256"
        }
      ],
      "name": "tokenURI",
      "outputs": [
        {
          "internalType": "string",
          "name": "",
          "type": "string"
        }
      ],
      "stateMutability": "view",
      "type": "function"
    },
    {
      "inputs": [
        {
          "internalType": "address",
          "name": "from",
          "type": "address"
        },
        {
          "internalType": "address",
          "name": "to",
          "type": "address"
        },
        {
          "internalType": "uint256",
          "name": "tokenId",
          "type": "uint256"
        }
      ],
      "name": "transferFrom",
      "outputs": [],
      "stateMutability": "nonpayable",
      "type": "function"
    },
    {
      "inputs": [
        {
          "internalType": "address",
          "name": "newOwner",
          "type": "address"
        }
      ],
      "name": "transferOwnership",
      "outputs": [],
      "stateMutability": "nonpayable",
      "type": "function"
    }
  ],
  "bytecode": "0x608060405260006008553480156200001657600080fd5b50336040518060400160405280601381526020017f436f6e74726163744e4654506c6174666f726d000000000000000000000000008152506040518060400160405280600381526020017f434e540000000000000000000000000000000000000000000000000000000000815250816000908162000095919062000477565b508060019081620000a7919062000477565b505050600073ffffffffffffffffffffffffffffffffffffffff168173ffffffffffffffffffffffffffffffffffffffff16036200011f5760006040517f1e4fbdf7000000000000000000000000000000000000000000000000000000008152600401620001169190620005a3565b60405180910390fd5b62000130816200013760201b60201c565b50620005c0565b6000600760009054906101000a900473ffffffffffffffffffffffffffffffffffffffff16905081600760006101000a81548173ffffffffffffffffffffffffffffffffffffffff021916908373ffffffffffffffffffffffffffffffffffffffff1602179055508173ffffffffffffffffffffffffffffffffffffffff168173ffffffffffffffffffffffffffffffffffffffff167f8be0079c531659141344cd1fd0a4f28419497f9722a3daafe3b4186f6b6457e060405160405180910390a35050565b600081519050919050565b7f4e487b7100000000000000000000000000000000000000000000000000000000600052604160045260246000fd5b7f4e487b7100000000000000000000000000000000000000000000000000000000600052602260045260246000fd5b600060028204905060018216806200027f57607f821691505b60208210810362000295576200029462000237565b5b50919050565b60008190508160005260206000209050919050565b60006020601f8301049050919050565b600082821b905092915050565b600060088302620002ff7fffffffffffffffffffffffffffffffffffffffffffffffffffffffffffffffff82620002c0565b6200030b8683620002c0565b95508019841693508086168417925050509392505050565b6000819050919050565b6000819050919050565b600062000358620003526200034c8462000323565b6200032d565b62000323565b9050919050565b6000819050919050565b620003748362000337565b6200038c62000383826200035f565b848454620002cd565b825550505050565b600090565b620003a362000394565b620003b081848462000369565b505050565b5b81811015620003d857620003cc60008262000399565b600181019050620003b6565b5050565b601f8211156200042757620003f1816200029b565b620003fc84620002b0565b810160208510156200040c578190505b620004246200041b85620002b0565b830182620003b5565b50505b505050565b600082821c905092915050565b60006200044c600019846008026200042c565b1980831691505092915050565b600062000467838362000439565b9150826002028217905092915050565b6200048282620001fd565b67ffffffffffffffff8111156200049e576200049d62000208565b5b620004aa825462000266565b620004b7828285620003dc565b600060209050601f831160018114620004ef5760008415620004da578287015190505b620004e6858262000459565b86555062000556565b601f198416620004ff866200029b565b60005b82811015620005295784890151825560018201915060208501945060208101905062000502565b8683101562000549578489015162000545601f89168262000439565b8355505b6001600288020188555050505b505050505050565b600073ffffffffffffffffffffffffffffffffffffffff82169050919050565b60006200058b826200055e565b9050919050565b6200059d816200057e565b82525050565b6000602082019050620005ba600083018462000592565b92915050565b61318180620005d06000396000f3fe60806040526004361061012a5760003560e01c8063715018a6116100ab578063a6e325131161006f578063a6e32513146103e8578063b88d4fde14610411578063c87b56dd1461043a578063e985e9c514610477578063ec1a141f146104b4578063f2fde38b146104f65761012a565b8063715018a61461032757806375794a3c1461033e5780638da5cb5b1461036957806395d89b4114610394578063a22cb465146103bf5761012a565b806323b872dd116100f257806323b872dd146102195780632a8cc0781461024257806342842e0e146102845780636352211e146102ad57806370a08231146102ea5761012a565b806301f8eb5f1461012f57806301ffc9a71461014b57806306fdde0314610188578063081812fc146101b3578063095ea7b3146101f0575b600080fd5b6101496004803603810190610144919061232d565b61051f565b005b34801561015757600080fd5b50610172600480360381019061016d91906123b2565b610696565b60405161017f91906123fa565b60405180910390f35b34801561019457600080fd5b5061019d6106f7565b6040516101aa91906124a5565b60405180910390f35b3480156101bf57600080fd5b506101da60048036038101906101d5919061232d565b610789565b6040516101e79190612508565b60405180910390f35b3480156101fc57600080fd5b506102176004803603810190610212919061254f565b6107a5565b005b34801561022557600080fd5b50610240600480360381019061023b919061258f565b6107bb565b005b34801561024e57600080fd5b506102696004803603810190610264919061232d565b6108bd565b60405161027b969594939291906125f1565b60405180910390f35b34801561029057600080fd5b506102ab60048036038101906102a6919061258f565b610b17565b005b3480156102b957600080fd5b506102d460048036038101906102cf919061232d565b610b37565b6040516102e19190612508565b60405180910390f35b3480156102f657600080fd5b50610311600480360381019061030c9190612667565b610b49565b60405161031e9190612694565b60405180910390f35b34801561033357600080fd5b5061033c610c03565b005b34801561034a57600080fd5b50610353610c17565b6040516103609190612694565b60405180910390f35b34801561037557600080fd5b5061037e610c1d565b60405161038b9190612508565b60405180910390f35b3480156103a057600080fd5b506103a9610c47565b6040516103b691906124a5565b60405180910390f35b3480156103cb57600080fd5b506103e660048036038101906103e191906126db565b610cd9565b005b3480156103f457600080fd5b5061040f600480360381019061040a9190612850565b610cef565b005b34801561041d57600080fd5b5061043860048036038101906104339190612998565b610e6e565b005b34801561044657600080fd5b50610461600480360381019061045c919061232d565b610e93565b60405161046e91906124a5565b60405180910390f35b34801561048357600080fd5b5061049e60048036038101906104999190612a1b565b610fa6565b6040516104ab91906123fa565b60405180910390f35b3480156104c057600080fd5b506104db60048036038101906104d6919061232d565b61103a565b6040516104ed96959493929190612a7c565b60405180910390f35b34801561050257600080fd5b5061051d60048036038101906105189190612667565b61122e565b005b6008548110610563576040517f08c379a000000000000000000000000000000000000000000000000000000000815260040161055a90612b3e565b60405180910390fd5b600034116105a6576040517f08c379a000000000000000000000000000000000000000000000000000000000815260040161059d90612bd0565b60405180910390fd5b6000600960008381526020019081526020016000209050348160040160008282546105d19190612c1f565b925050819055508060050160009054906101000a900473ffffffffffffffffffffffffffffffffffffffff1673ffffffffffffffffffffffffffffffffffffffff166108fc349081150290604051600060405180830381858888f19350505050158015610642573d6000803e3d6000fd5b503373ffffffffffffffffffffffffffffffffffffffff16827f0b5b4c52969ff7329ecf7ee536409fda87812b15a8622bc6e8cdeab3aee14a263460405161068a9190612694565b60405180910390a35050565b6000634906490660e01b7bffffffffffffffffffffffffffffffffffffffffffffffffffffffff1916827bffffffffffffffffffffffffffffffffffffffffffffffffffffffff191614806106f057506106ef826112b4565b5b9050919050565b60606000805461070690612c82565b80601f016020809104026020016040519081016040528092919081815260200182805461073290612c82565b801561077f5780601f106107545761010080835404028352916020019161077f565b820191906000526020600020905b81548152906001019060200180831161076257829003601f168201915b5050505050905090565b600061079482611396565b5061079e8261141e565b9050919050565b6107b782826107b261145b565b611463565b5050565b600073ffffffffffffffffffffffffffffffffffffffff168273ffffffffffffffffffffffffffffffffffffffff160361082d5760006040517f64a0ae920000000000000000000000000000000000000000000000000000000081526004016108249190612508565b60405180910390fd5b6000610841838361083c61145b565b611475565b90508373ffffffffffffffffffffffffffffffffffffffff168173ffffffffffffffffffffffffffffffffffffffff16146108b7578382826040517f64283d7b0000000000000000000000000000000000000000000000000000000081526004016108ae93929190612cb3565b60405180910390fd5b50505050565b60006060806060600080600854871061090b576040517f08c379a000000000000000000000000000000000000000000000000000000000815260040161090290612b3e565b60405180910390fd5b6000600960008981526020019081526020016000209050806000015481600101826002018360030184600401548560050160009054906101000a900473ffffffffffffffffffffffffffffffffffffffff1684805461096990612c82565b80601f016020809104026020016040519081016040528092919081815260200182805461099590612c82565b80156109e25780601f106109b7576101008083540402835291602001916109e2565b820191906000526020600020905b8154815290600101906020018083116109c557829003601f168201915b505050505094508380546109f590612c82565b80601f0160208091040260200160405190810160405280929190818152602001828054610a2190612c82565b8015610a6e5780601f10610a4357610100808354040283529160200191610a6e565b820191906000526020600020905b815481529060010190602001808311610a5157829003601f168201915b50505050509350828054610a8190612c82565b80601f0160208091040260200160405190810160405280929190818152602001828054610aad90612c82565b8015610afa5780601f10610acf57610100808354040283529160200191610afa565b820191906000526020600020905b815481529060010190602001808311610add57829003601f168201915b505050505092509650965096509650965096505091939550919395565b610b3283838360405180602001604052806000815250610e6e565b505050565b6000610b4282611396565b9050919050565b60008073ffffffffffffffffffffffffffffffffffffffff168273ffffffffffffffffffffffffffffffffffffffff1603610bbc5760006040517f89c62b64000000000000000000000000000000000000000000000000000000008152600401610bb39190612508565b60405180910390fd5b600360008373ffffffffffffffffffffffffffffffffffffffff1673ffffffffffffffffffffffffffffffffffffffff168152602001908152602001600020549050919050565b610c0b61168f565b610c156000611716565b565b60085481565b6000600760009054906101000a900473ffffffffffffffffffffffffffffffffffffffff16905090565b606060018054610c5690612c82565b80601f0160208091040260200160405190810160405280929190818152602001828054610c8290612c82565b8015610ccf5780601f10610ca457610100808354040283529160200191610ccf565b820191906000526020600020905b815481529060010190602001808311610cb257829003601f168201915b5050505050905090565b610ceb610ce461145b565b83836117dc565b5050565b60006008549050610d00338261194b565b610d0a8183611a44565b6040518060c00160405280828152602001858152602001848152602001838152602001600081526020013373ffffffffffffffffffffffffffffffffffffffff1681525060096000838152602001908152602001600020600082015181600001556020820151816001019081610d809190612e96565b506040820151816002019081610d969190612e96565b506060820151816003019081610dac9190612e96565b506080820151816004015560a08201518160050160006101000a81548173ffffffffffffffffffffffffffffffffffffffff021916908373ffffffffffffffffffffffffffffffffffffffff16021790555090505060086000815480929190610e1490612f68565b91905055503373ffffffffffffffffffffffffffffffffffffffff16817fa62b4b2641d00cc015ce12ddd174f6f85de37cac3bce10862b363746b092354284604051610e6091906124a5565b60405180910390a350505050565b610e798484846107bb565b610e8d610e8461145b565b85858585611aa0565b50505050565b6060610e9e82611396565b506000600660008481526020019081526020016000208054610ebf90612c82565b80601f0160208091040260200160405190810160405280929190818152602001828054610eeb90612c82565b8015610f385780601f10610f0d57610100808354040283529160200191610f38565b820191906000526020600020905b815481529060010190602001808311610f1b57829003601f168201915b505050505090506000610f49611c51565b90506000815103610f5e578192505050610fa1565b600082511115610f93578082604051602001610f7b929190612fec565b60405160208183030381529060405292505050610fa1565b610f9c84611c68565b925050505b919050565b6000600560008473ffffffffffffffffffffffffffffffffffffffff1673ffffffffffffffffffffffffffffffffffffffff16815260200190815260200160002060008373ffffffffffffffffffffffffffffffffffffffff1673ffffffffffffffffffffffffffffffffffffffff16815260200190815260200160002060009054906101000a900460ff16905092915050565b600960205280600052604060002060009150905080600001549080600101805461106390612c82565b80601f016020809104026020016040519081016040528092919081815260200182805461108f90612c82565b80156110dc5780601f106110b1576101008083540402835291602001916110dc565b820191906000526020600020905b8154815290600101906020018083116110bf57829003601f168201915b5050505050908060020180546110f190612c82565b80601f016020809104026020016040519081016040528092919081815260200182805461111d90612c82565b801561116a5780601f1061113f5761010080835404028352916020019161116a565b820191906000526020600020905b81548152906001019060200180831161114d57829003601f168201915b50505050509080600301805461117f90612c82565b80601f01602080910402602001604051908101604052809291908181526020018280546111ab90612c82565b80156111f85780601f106111cd576101008083540402835291602001916111f8565b820191906000526020600020905b8154815290600101906020018083116111db57829003601f168201915b5050505050908060040154908060050160009054906101000a900473ffffffffffffffffffffffffffffffffffffffff16905086565b61123661168f565b600073ffffffffffffffffffffffffffffffffffffffff168173ffffffffffffffffffffffffffffffffffffffff16036112a85760006040517f1e4fbdf700000000000000000000000000000000000000000000000000000000815260040161129f9190612508565b60405180910390fd5b6112b181611716565b50565b60007f80ac58cd000000000000000000000000000000000000000000000000000000007bffffffffffffffffffffffffffffffffffffffffffffffffffffffff1916827bffffffffffffffffffffffffffffffffffffffffffffffffffffffff1916148061137f57507f5b5e139f000000000000000000000000000000000000000000000000000000007bffffffffffffffffffffffffffffffffffffffffffffffffffffffff1916827bffffffffffffffffffffffffffffffffffffffffffffffffffffffff1916145b8061138f575061138e82611cd1565b5b9050919050565b6000806113a283611d3b565b9050600073ffffffffffffffffffffffffffffffffffffffff168173ffffffffffffffffffffffffffffffffffffffff160361141557826040517f7e27328900000000000000000000000000000000000000000000000000000000815260040161140c9190612694565b60405180910390fd5b80915050919050565b60006004600083815260200190815260200160002060009054906101000a900473ffffffffffffffffffffffffffffffffffffffff169050919050565b600033905090565b6114708383836001611d78565b505050565b60008061148184611d3b565b9050600073ffffffffffffffffffffffffffffffffffffffff168373ffffffffffffffffffffffffffffffffffffffff16146114c3576114c2818486611f3d565b5b600073ffffffffffffffffffffffffffffffffffffffff168173ffffffffffffffffffffffffffffffffffffffff161461155457611505600085600080611d78565b6001600360008373ffffffffffffffffffffffffffffffffffffffff1673ffffffffffffffffffffffffffffffffffffffff168152602001908152602001600020600082825403925050819055505b600073ffffffffffffffffffffffffffffffffffffffff168573ffffffffffffffffffffffffffffffffffffffff16146115d7576001600360008773ffffffffffffffffffffffffffffffffffffffff1673ffffffffffffffffffffffffffffffffffffffff168152602001908152602001600020600082825401925050819055505b846002600086815260200190815260200160002060006101000a81548173ffffffffffffffffffffffffffffffffffffffff021916908373ffffffffffffffffffffffffffffffffffffffff160217905550838573ffffffffffffffffffffffffffffffffffffffff168273ffffffffffffffffffffffffffffffffffffffff167fddf252ad1be2c89b69c2b068fc378daa952ba7f163c4a11628f55a4df523b3ef60405160405180910390a4809150509392505050565b61169761145b565b73ffffffffffffffffffffffffffffffffffffffff166116b5610c1d565b73ffffffffffffffffffffffffffffffffffffffff1614611714576116d861145b565b6040517f118cdaa700000000000000000000000000000000000000000000000000000000815260040161170b9190612508565b60405180910390fd5b565b6000600760009054906101000a900473ffffffffffffffffffffffffffffffffffffffff16905081600760006101000a81548173ffffffffffffffffffffffffffffffffffffffff021916908373ffffffffffffffffffffffffffffffffffffffff1602179055508173ffffffffffffffffffffffffffffffffffffffff168173ffffffffffffffffffffffffffffffffffffffff167f8be0079c531659141344cd1fd0a4f28419497f9722a3daafe3b4186f6b6457e060405160405180910390a35050565b600073ffffffffffffffffffffffffffffffffffffffff168273ffffffffffffffffffffffffffffffffffffffff160361184d57816040517f5b08ba180000000000000000000000000000000000000000000000000000000081526004016118449190612508565b60405180910390fd5b80600560008573ffffffffffffffffffffffffffffffffffffffff1673ffffffffffffffffffffffffffffffffffffffff16815260200190815260200160002060008473ffffffffffffffffffffffffffffffffffffffff1673ffffffffffffffffffffffffffffffffffffffff16815260200190815260200160002060006101000a81548160ff0219169083151502179055508173ffffffffffffffffffffffffffffffffffffffff168373ffffffffffffffffffffffffffffffffffffffff167f17307eab39ab6107e8899845ad3d59bd9653f200f220920489ca2b5937696c318360405161193e91906123fa565b60405180910390a3505050565b600073ffffffffffffffffffffffffffffffffffffffff168273ffffffffffffffffffffffffffffffffffffffff16036119bd5760006040517f64a0ae920000000000000000000000000000000000000000000000000000000081526004016119b49190612508565b60405180910390fd5b60006119cb83836000611475565b9050600073ffffffffffffffffffffffffffffffffffffffff168173ffffffffffffffffffffffffffffffffffffffff1614611a3f5760006040517f73c6ac6e000000000000000000000000000000000000000000000000000000008152600401611a369190612508565b60405180910390fd5b505050565b80600660008481526020019081526020016000209081611a649190612e96565b507ff8e1a15aba9398e019f0b49df1a4fde98ee17ae345cb5f6b5e2c27f5033e8ce782604051611a949190612694565b60405180910390a15050565b60008373ffffffffffffffffffffffffffffffffffffffff163b1115611c4a578273ffffffffffffffffffffffffffffffffffffffff1663150b7a02868685856040518563ffffffff1660e01b8152600401611aff9493929190613065565b6020604051808303816000875af1925050508015611b3b57506040513d601f19601f82011682018060405250810190611b3891906130c6565b60015b611bbf573d8060008114611b6b576040519150601f19603f3d011682016040523d82523d6000602084013e611b70565b606091505b506000815103611bb757836040517f64a0ae92000000000000000000000000000000000000000000000000000000008152600401611bae9190612508565b60405180910390fd5b805181602001fd5b63150b7a0260e01b7bffffffffffffffffffffffffffffffffffffffffffffffffffffffff1916817bffffffffffffffffffffffffffffffffffffffffffffffffffffffff191614611c4857836040517f64a0ae92000000000000000000000000000000000000000000000000000000008152600401611c3f9190612508565b60405180910390fd5b505b5050505050565b606060405180602001604052806000815250905090565b6060611c7382611396565b506000611c7e611c51565b90506000815111611c9e5760405180602001604052806000815250611cc9565b80611ca884612001565b604051602001611cb9929190612fec565b6040516020818303038152906040525b915050919050565b60007f01ffc9a7000000000000000000000000000000000000000000000000000000007bffffffffffffffffffffffffffffffffffffffffffffffffffffffff1916827bffffffffffffffffffffffffffffffffffffffffffffffffffffffff1916149050919050565b60006002600083815260200190815260200160002060009054906101000a900473ffffffffffffffffffffffffffffffffffffffff169050919050565b8080611db15750600073ffffffffffffffffffffffffffffffffffffffff168273ffffffffffffffffffffffffffffffffffffffff1614155b15611ee5576000611dc184611396565b9050600073ffffffffffffffffffffffffffffffffffffffff168373ffffffffffffffffffffffffffffffffffffffff1614158015611e2c57508273ffffffffffffffffffffffffffffffffffffffff168173ffffffffffffffffffffffffffffffffffffffff1614155b8015611e3f5750611e3d8184610fa6565b155b15611e8157826040517fa9fbf51f000000000000000000000000000000000000000000000000000000008152600401611e789190612508565b60405180910390fd5b8115611ee357838573ffffffffffffffffffffffffffffffffffffffff168273ffffffffffffffffffffffffffffffffffffffff167f8c5be1e5ebec7d5bd14f71427d1e84f3dd0314c0f7b2291e5b200ac8c7c3b92560405160405180910390a45b505b836004600085815260200190815260200160002060006101000a81548173ffffffffffffffffffffffffffffffffffffffff021916908373ffffffffffffffffffffffffffffffffffffffff16021790555050505050565b611f488383836120cf565b611ffc57600073ffffffffffffffffffffffffffffffffffffffff168373ffffffffffffffffffffffffffffffffffffffff1603611fbd57806040517f7e273289000000000000000000000000000000000000000000000000000000008152600401611fb49190612694565b60405180910390fd5b81816040517f177e802f000000000000000000000000000000000000000000000000000000008152600401611ff39291906130f3565b60405180910390fd5b505050565b60606000600161201084612190565b01905060008167ffffffffffffffff81111561202f5761202e612725565b5b6040519080825280601f01601f1916602001820160405280156120615781602001600182028036833780820191505090505b509050600082602001820190505b6001156120c4578080600190039150507f3031323334353637383961626364656600000000000000000000000000000000600a86061a8153600a85816120b8576120b761311c565b5b0494506000850361206f575b819350505050919050565b60008073ffffffffffffffffffffffffffffffffffffffff168373ffffffffffffffffffffffffffffffffffffffff161415801561218757508273ffffffffffffffffffffffffffffffffffffffff168473ffffffffffffffffffffffffffffffffffffffff16148061214857506121478484610fa6565b5b8061218657508273ffffffffffffffffffffffffffffffffffffffff1661216e8361141e565b73ffffffffffffffffffffffffffffffffffffffff16145b5b90509392505050565b600080600090507a184f03e93ff9f4daa797ed6e38ed64bf6a1f01000000000000000083106121ee577a184f03e93ff9f4daa797ed6e38ed64bf6a1f01000000000000000083816121e4576121e361311c565b5b0492506040810190505b6d04ee2d6d415b85acef8100000000831061222b576d04ee2d6d415b85acef810000000083816122215761222061311c565b5b0492506020810190505b662386f26fc10000831061225a57662386f26fc1000083816122505761224f61311c565b5b0492506010810190505b6305f5e1008310612283576305f5e10083816122795761227861311c565b5b0492506008810190505b61271083106122a857612710838161229e5761229d61311c565b5b0492506004810190505b606483106122cb57606483816122c1576122c061311c565b5b0492506002810190505b600a83106122da576001810190505b80915050919050565b6000604051905090565b600080fd5b600080fd5b6000819050919050565b61230a816122f7565b811461231557600080fd5b50565b60008135905061232781612301565b92915050565b600060208284031215612343576123426122ed565b5b600061235184828501612318565b91505092915050565b60007fffffffff0000000000000000000000000000000000000000000000000000000082169050919050565b61238f8161235a565b811461239a57600080fd5b50565b6000813590506123ac81612386565b92915050565b6000602082840312156123c8576123c76122ed565b5b60006123d68482850161239d565b91505092915050565b60008115159050919050565b6123f4816123df565b82525050565b600060208201905061240f60008301846123eb565b92915050565b600081519050919050565b600082825260208201905092915050565b60005b8381101561244f578082015181840152602081019050612434565b60008484015250505050565b6000601f19601f8301169050919050565b600061247782612415565b6124818185612420565b9350612491818560208601612431565b61249a8161245b565b840191505092915050565b600060208201905081810360008301526124bf818461246c565b905092915050565b600073ffffffffffffffffffffffffffffffffffffffff82169050919050565b60006124f2826124c7565b9050919050565b612502816124e7565b82525050565b600060208201905061251d60008301846124f9565b92915050565b61252c816124e7565b811461253757600080fd5b50565b60008135905061254981612523565b92915050565b60008060408385031215612566576125656122ed565b5b60006125748582860161253a565b925050602061258585828601612318565b9150509250929050565b6000806000606084860312156125a8576125a76122ed565b5b60006125b68682870161253a565b93505060206125c78682870161253a565b92505060406125d886828701612318565b9150509250925092565b6125eb816122f7565b82525050565b600060c08201905061260660008301896125e2565b8181036020830152612618818861246c565b9050818103604083015261262c818761246c565b90508181036060830152612640818661246c565b905061264f60808301856125e2565b61265c60a08301846124f9565b979650505050505050565b60006020828403121561267d5761267c6122ed565b5b600061268b8482850161253a565b91505092915050565b60006020820190506126a960008301846125e2565b92915050565b6126b8816123df565b81146126c357600080fd5b50565b6000813590506126d5816126af565b92915050565b600080604083850312156126f2576126f16122ed565b5b60006127008582860161253a565b9250506020612711858286016126c6565b9150509250929050565b600080fd5b600080fd5b7f4e487b7100000000000000000000000000000000000000000000000000000000600052604160045260246000fd5b61275d8261245b565b810181811067ffffffffffffffff8211171561277c5761277b612725565b5b80604052505050565b600061278f6122e3565b905061279b8282612754565b919050565b600067ffffffffffffffff8211156127bb576127ba612725565b5b6127c48261245b565b9050602081019050919050565b82818337600083830152505050565b60006127f36127ee846127a0565b612785565b90508281526020810184848401111561280f5761280e612720565b5b61281a8482856127d1565b509392505050565b600082601f8301126128375761283661271b565b5b81356128478482602086016127e0565b91505092915050565b600080600060608486031215612869576128686122ed565b5b600084013567ffffffffffffffff811115612887576128866122f2565b5b61289386828701612822565b935050602084013567ffffffffffffffff8111156128b4576128b36122f2565b5b6128c086828701612822565b925050604084013567ffffffffffffffff8111156128e1576128e06122f2565b5b6128ed86828701612822565b9150509250925092565b600067ffffffffffffffff82111561291257612911612725565b5b61291b8261245b565b9050602081019050919050565b600061293b612936846128f7565b612785565b90508281526020810184848401111561295757612956612720565b5b6129628482856127d1565b509392505050565b600082601f83011261297f5761297e61271b565b5b813561298f848260208601612928565b91505092915050565b600080600080608085870312156129b2576129b16122ed565b5b60006129c08782880161253a565b94505060206129d18782880161253a565b93505060406129e287828801612318565b925050606085013567ffffffffffffffff811115612a0357612a026122f2565b5b612a0f8782880161296a565b91505092959194509250565b60008060408385031215612a3257612a316122ed565b5b6000612a408582860161253a565b9250506020612a518582860161253a565b9150509250929050565b6000612a66826124c7565b9050919050565b612a7681612a5b565b82525050565b600060c082019050612a9160008301896125e2565b8181036020830152612aa3818861246c565b90508181036040830152612ab7818761246c565b90508181036060830152612acb818661246c565b9050612ada60808301856125e2565b612ae760a0830184612a6d565b979650505050505050565b7f4e465420646f6573206e6f742065786973740000000000000000000000000000600082015250565b6000612b28601283612420565b9150612b3382612af2565b602082019050919050565b60006020820190508181036000830152612b5781612b1b565b9050919050565b7f446f6e6174696f6e206d7573742062652067726561746572207468616e207a6560008201527f726f000000000000000000000000000000000000000000000000000000000000602082015250565b6000612bba602283612420565b9150612bc582612b5e565b604082019050919050565b60006020820190508181036000830152612be981612bad565b9050919050565b7f4e487b7100000000000000000000000000000000000000000000000000000000600052601160045260246000fd5b6000612c2a826122f7565b9150612c35836122f7565b9250828201905080821115612c4d57612c4c612bf0565b5b92915050565b7f4e487b7100000000000000000000000000000000000000000000000000000000600052602260045260246000fd5b60006002820490506001821680612c9a57607f821691505b602082108103612cad57612cac612c53565b5b50919050565b6000606082019050612cc860008301866124f9565b612cd560208301856125e2565b612ce260408301846124f9565b949350505050565b60008190508160005260206000209050919050565b60006020601f8301049050919050565b600082821b905092915050565b600060088302612d4c7fffffffffffffffffffffffffffffffffffffffffffffffffffffffffffffffff82612d0f565b612d568683612d0f565b95508019841693508086168417925050509392505050565b6000819050919050565b6000612d93612d8e612d89846122f7565b612d6e565b6122f7565b9050919050565b6000819050919050565b612dad83612d78565b612dc1612db982612d9a565b848454612d1c565b825550505050565b600090565b612dd6612dc9565b612de1818484612da4565b505050565b5b81811015612e0557612dfa600082612dce565b600181019050612de7565b5050565b601f821115612e4a57612e1b81612cea565b612e2484612cff565b81016020851015612e33578190505b612e47612e3f85612cff565b830182612de6565b50505b505050565b600082821c905092915050565b6000612e6d60001984600802612e4f565b1980831691505092915050565b6000612e868383612e5c565b9150826002028217905092915050565b612e9f82612415565b67ffffffffffffffff811115612eb857612eb7612725565b5b612ec28254612c82565b612ecd828285612e09565b600060209050601f831160018114612f005760008415612eee578287015190505b612ef88582612e7a565b865550612f60565b601f198416612f0e86612cea565b60005b82811015612f3657848901518255600182019150602085019450602081019050612f11565b86831015612f535784890151612f4f601f891682612e5c565b8355505b6001600288020188555050505b505050505050565b6000612f73826122f7565b91507fffffffffffffffffffffffffffffffffffffffffffffffffffffffffffffffff8203612fa557612fa4612bf0565b5b600182019050919050565b600081905092915050565b6000612fc682612415565b612fd08185612fb0565b9350612fe0818560208601612431565b80840191505092915050565b6000612ff88285612fbb565b91506130048284612fbb565b91508190509392505050565b600081519050919050565b600082825260208201905092915050565b600061303782613010565b613041818561301b565b9350613051818560208601612431565b61305a8161245b565b840191505092915050565b600060808201905061307a60008301876124f9565b61308760208301866124f9565b61309460408301856125e2565b81810360608301526130a6818461302c565b905095945050505050565b6000815190506130c081612386565b92915050565b6000602082840312156130dc576130db6122ed565b5b60006130ea848285016130b1565b91505092915050565b600060408201905061310860008301856124f9565b61311560208301846125e2565b9392505050565b7f4e487b7100000000000000000000000000000000000000000000000000000000600052601260045260246000fdfea26469706673582212203eba4bf7442600495fbdfc7ff880880ceb80e10aff85badc5dbbd604bb19964e64736f6c63430008140033",
  "linkReferences": {},
  "deployedLinkReferences": {}
}