{
  "_format": "hh-sol-artifact-1",
  "contractName": "Discussion",
  "sourceName": "contracts/Discussion.sol",
  "abi": [
    {
      "anonymous": false,
      "inputs": [
        {
          "indexed": true,
          "internalType": "address",
          "name": "author",
          "type": "address"
        },
        {
          "indexed": false,
          "internalType": "string",
          "name": "content",
          "type": "string"
        },
        {
          "indexed": false,
          "internalType": "uint256",
          "name": "timestamp",
          "type": "uint256"
        }
      ],
      "name": "MessagePosted",
      "type": "event"
    },
    {
      "inputs": [],
      "name": "getMessages",
      "outputs": [
        {
          "components": [
            {
              "internalType": "address",
              "name": "author",
              "type": "address"
            },
            {
              "internalType": "string",
              "name": "content",
              "type": "string"
            },
            {
              "internalType": "uint256",
              "name": "timestamp",
              "type": "uint256"
            }
          ],
          "internalType": "struct Discussion.Message[]",
          "name": "",
          "type": "tuple[]"
        }
      ],
      "stateMutability": "view",
      "type": "function"
    },
    {
      "inputs": [
        {
          "internalType": "uint256",
          "name": "",
          "type": "uint256"
        }
      ],
      "name": "messages",
      "outputs": [
        {
          "internalType": "address",
          "name": "author",
          "type": "address"
        },
        {
          "internalType": "string",
          "name": "content",
          "type": "string"
        },
        {
          "internalType": "uint256",
          "name": "timestamp",
          "type": "uint256"
        }
      ],
      "stateMutability": "view",
      "type": "function"
    },
    {
      "inputs": [
        {
          "internalType": "string",
          "name": "content",
          "type": "string"
        }
      ],
      "name": "postMessage",
      "outputs": [],
      "stateMutability": "nonpayable",
      "type": "function"
    }
  ],
  "bytecode": "0x608060405234801561001057600080fd5b50610c86806100206000396000f3fe608060405234801561001057600080fd5b50600436106100415760003560e01c80630d80fefd146100465780635ff6cbf3146100785780636630f88f14610096575b600080fd5b610060600480360381019061005b91906104d0565b6100b2565b60405161006f939291906105dd565b60405180910390f35b610080610194565b60405161008d9190610795565b60405180910390f35b6100b060048036038101906100ab919061081c565b6102e5565b005b600081815481106100c257600080fd5b90600052602060002090600302016000915090508060000160009054906101000a900473ffffffffffffffffffffffffffffffffffffffff169080600101805461010b90610898565b80601f016020809104026020016040519081016040528092919081815260200182805461013790610898565b80156101845780601f1061015957610100808354040283529160200191610184565b820191906000526020600020905b81548152906001019060200180831161016757829003601f168201915b5050505050908060020154905083565b60606000805480602002602001604051908101604052809291908181526020016000905b828210156102dc57838290600052602060002090600302016040518060600160405290816000820160009054906101000a900473ffffffffffffffffffffffffffffffffffffffff1673ffffffffffffffffffffffffffffffffffffffff1673ffffffffffffffffffffffffffffffffffffffff16815260200160018201805461024190610898565b80601f016020809104026020016040519081016040528092919081815260200182805461026d90610898565b80156102ba5780601f1061028f576101008083540402835291602001916102ba565b820191906000526020600020905b81548152906001019060200180831161029d57829003601f168201915b50505050508152602001600282015481525050815260200190600101906101b8565b50505050905090565b6000828290501161032b576040517f08c379a000000000000000000000000000000000000000000000000000000000815260040161032290610915565b60405180910390fd5b600060405180606001604052803373ffffffffffffffffffffffffffffffffffffffff16815260200184848080601f016020809104026020016040519081016040528093929190818152602001838380828437600081840152601f19601f820116905080830192505050505050508152602001428152509050600081908060018154018082558091505060019003906000526020600020906003020160009091909190915060008201518160000160006101000a81548173ffffffffffffffffffffffffffffffffffffffff021916908373ffffffffffffffffffffffffffffffffffffffff160217905550602082015181600101908161042c9190610b10565b506040820151816002015550503373ffffffffffffffffffffffffffffffffffffffff167f6d334e6c56ab039764300c508e6f79891f4ddce8d92de4108c43fa1de6908a2884844260405161048393929190610c1e565b60405180910390a2505050565b600080fd5b600080fd5b6000819050919050565b6104ad8161049a565b81146104b857600080fd5b50565b6000813590506104ca816104a4565b92915050565b6000602082840312156104e6576104e5610490565b5b60006104f4848285016104bb565b91505092915050565b600073ffffffffffffffffffffffffffffffffffffffff82169050919050565b6000610528826104fd565b9050919050565b6105388161051d565b82525050565b600081519050919050565b600082825260208201905092915050565b60005b8381101561057857808201518184015260208101905061055d565b60008484015250505050565b6000601f19601f8301169050919050565b60006105a08261053e565b6105aa8185610549565b93506105ba81856020860161055a565b6105c381610584565b840191505092915050565b6105d78161049a565b82525050565b60006060820190506105f2600083018661052f565b81810360208301526106048185610595565b905061061360408301846105ce565b949350505050565b600081519050919050565b600082825260208201905092915050565b6000819050602082019050919050565b6106508161051d565b82525050565b600082825260208201905092915050565b60006106728261053e565b61067c8185610656565b935061068c81856020860161055a565b61069581610584565b840191505092915050565b6106a98161049a565b82525050565b60006060830160008301516106c76000860182610647565b50602083015184820360208601526106df8282610667565b91505060408301516106f460408601826106a0565b508091505092915050565b600061070b83836106af565b905092915050565b6000602082019050919050565b600061072b8261061b565b6107358185610626565b93508360208202850161074785610637565b8060005b85811015610783578484038952815161076485826106ff565b945061076f83610713565b925060208a0199505060018101905061074b565b50829750879550505050505092915050565b600060208201905081810360008301526107af8184610720565b905092915050565b600080fd5b600080fd5b600080fd5b60008083601f8401126107dc576107db6107b7565b5b8235905067ffffffffffffffff8111156107f9576107f86107bc565b5b602083019150836001820283011115610815576108146107c1565b5b9250929050565b6000806020838503121561083357610832610490565b5b600083013567ffffffffffffffff81111561085157610850610495565b5b61085d858286016107c6565b92509250509250929050565b7f4e487b7100000000000000000000000000000000000000000000000000000000600052602260045260246000fd5b600060028204905060018216806108b057607f821691505b6020821081036108c3576108c2610869565b5b50919050565b7f4d65737361676520636f6e74656e742063616e6e6f7420626520656d70747900600082015250565b60006108ff601f83610549565b915061090a826108c9565b602082019050919050565b6000602082019050818103600083015261092e816108f2565b9050919050565b7f4e487b7100000000000000000000000000000000000000000000000000000000600052604160045260246000fd5b60008190508160005260206000209050919050565b60006020601f8301049050919050565b600082821b905092915050565b6000600883026109c67fffffffffffffffffffffffffffffffffffffffffffffffffffffffffffffffff82610989565b6109d08683610989565b95508019841693508086168417925050509392505050565b6000819050919050565b6000610a0d610a08610a038461049a565b6109e8565b61049a565b9050919050565b6000819050919050565b610a27836109f2565b610a3b610a3382610a14565b848454610996565b825550505050565b600090565b610a50610a43565b610a5b818484610a1e565b505050565b5b81811015610a7f57610a74600082610a48565b600181019050610a61565b5050565b601f821115610ac457610a9581610964565b610a9e84610979565b81016020851015610aad578190505b610ac1610ab985610979565b830182610a60565b50505b505050565b600082821c905092915050565b6000610ae760001984600802610ac9565b1980831691505092915050565b6000610b008383610ad6565b9150826002028217905092915050565b610b198261053e565b67ffffffffffffffff811115610b3257610b31610935565b5b610b3c8254610898565b610b47828285610a83565b600060209050601f831160018114610b7a5760008415610b68578287015190505b610b728582610af4565b865550610bda565b601f198416610b8886610964565b60005b82811015610bb057848901518255600182019150602085019450602081019050610b8b565b86831015610bcd5784890151610bc9601f891682610ad6565b8355505b6001600288020188555050505b505050505050565b82818337600083830152505050565b6000610bfd8385610549565b9350610c0a838584610be2565b610c1383610584565b840190509392505050565b60006040820190508181036000830152610c39818587610bf1565b9050610c4860208301846105ce565b94935050505056fea2646970667358221220153f4a360d89902d2dc1088148d3dca020fc22cdedf9d7db61b69d60ae0a08ac64736f6c63430008140033",
  "linkReferences": {},
  "deployedLinkReferences": {}
}